{
    "_format": "hh-sol-artifact-1",
    "contractName": "DaoToken",
    "sourceName": "contracts/DaoToken.sol",
    "abi": [
        {
            "inputs": [
                {
                    "internalType": "string",
                    "name": "descriptio",
                    "type": "string"
                }
            ],
            "name": "createProposal",
            "outputs": [],
            "stateMutability": "nonpayable",
            "type": "function"
        },
        {
            "inputs": [
                {
                    "internalType": "uint256",
                    "name": "proposalId",
                    "type": "uint256"
                }
            ],
            "name": "executeProposal",
            "outputs": [],
            "stateMutability": "nonpayable",
            "type": "function"
        },
        {
            "inputs": [
                {
                    "internalType": "uint256",
                    "name": "proposalId",
                    "type": "uint256"
                }
            ],
            "name": "getProposal",
            "outputs": [
                {
                    "internalType": "uint256",
                    "name": "",
                    "type": "uint256"
                },
                {
                    "internalType": "string",
                    "name": "",
                    "type": "string"
                },
                {
                    "internalType": "uint256",
                    "name": "",
                    "type": "uint256"
                },
                {
                    "internalType": "bool",
                    "name": "",
                    "type": "bool"
                }
            ],
            "stateMutability": "view",
            "type": "function"
        },
        {
            "inputs": [],
            "name": "proposalCount",
            "outputs": [
                {
                    "internalType": "uint256",
                    "name": "",
                    "type": "uint256"
                }
            ],
            "stateMutability": "view",
            "type": "function"
        },
        {
            "inputs": [
                {
                    "internalType": "uint256",
                    "name": "",
                    "type": "uint256"
                }
            ],
            "name": "proposals",
            "outputs": [
                {
                    "internalType": "uint256",
                    "name": "id",
                    "type": "uint256"
                },
                {
                    "internalType": "string",
                    "name": "description",
                    "type": "string"
                },
                {
                    "internalType": "uint256",
                    "name": "votes",
                    "type": "uint256"
                },
                {
                    "internalType": "bool",
                    "name": "executed",
                    "type": "bool"
                }
            ],
            "stateMutability": "view",
            "type": "function"
        },
        {
            "inputs": [
                {
                    "internalType": "uint256",
                    "name": "proposalId",
                    "type": "uint256"
                }
            ],
            "name": "voteOnProposal",
            "outputs": [],
            "stateMutability": "nonpayable",
            "type": "function"
        }
    ],
    "bytecode": "0x608060405234801561001057600080fd5b50610ba2806100206000396000f3fe608060405234801561001057600080fd5b50600436106100625760003560e01c8063013cf08b146100675780630d61b5191461009a57806349c2a1a6146100b6578063add68edc146100d2578063c7f758a8146100ee578063da35c66414610121575b600080fd5b610081600480360381019061007c91906104df565b61013f565b60405161009194939291906105c6565b60405180910390f35b6100b460048036038101906100af91906104df565b610204565b005b6100d060048036038101906100cb9190610747565b61028d565b005b6100ec60048036038101906100e791906104df565b610330565b005b610108600480360381019061010391906104df565b6103b6565b60405161011894939291906105c6565b60405180910390f35b61012961048f565b6040516101369190610790565b60405180910390f35b6000602052806000526040600020600091509050806000015490806001018054610168906107da565b80601f0160208091040260200160405190810160405280929190818152602001828054610194906107da565b80156101e15780601f106101b6576101008083540402835291602001916101e1565b820191906000526020600020905b8154815290600101906020018083116101c457829003601f168201915b5050505050908060020154908060030160009054906101000a900460ff16905084565b600080600083815260200190815260200160002090508060030160009054906101000a900460ff161561026c576040517f08c379a000000000000000000000000000000000000000000000000000000000815260040161026390610857565b60405180910390fd5b60018160030160006101000a81548160ff0219169083151502179055505050565b600160008154809291906102a0906108a6565b919050555060405180608001604052806001548152602001828152602001600081526020016000151581525060008060015481526020019081526020016000206000820151816000015560208201518160010190816102ff9190610a9a565b506040820151816002015560608201518160030160006101000a81548160ff02191690831515021790555090505050565b600080600083815260200190815260200160002090508060030160009054906101000a900460ff1615610398576040517f08c379a000000000000000000000000000000000000000000000000000000000815260040161038f90610857565b60405180910390fd5b8060020160008154809291906103ad906108a6565b91905055505050565b600060606000806000806000878152602001908152602001600020905080600001548160010182600201548360030160009054906101000a900460ff168280546103ff906107da565b80601f016020809104026020016040519081016040528092919081815260200182805461042b906107da565b80156104785780601f1061044d57610100808354040283529160200191610478565b820191906000526020600020905b81548152906001019060200180831161045b57829003601f168201915b505050505092509450945094509450509193509193565b60015481565b6000604051905090565b600080fd5b600080fd5b6000819050919050565b6104bc816104a9565b81146104c757600080fd5b50565b6000813590506104d9816104b3565b92915050565b6000602082840312156104f5576104f461049f565b5b6000610503848285016104ca565b91505092915050565b610515816104a9565b82525050565b600081519050919050565b600082825260208201905092915050565b60005b8381101561055557808201518184015260208101905061053a565b60008484015250505050565b6000601f19601f8301169050919050565b600061057d8261051b565b6105878185610526565b9350610597818560208601610537565b6105a081610561565b840191505092915050565b60008115159050919050565b6105c0816105ab565b82525050565b60006080820190506105db600083018761050c565b81810360208301526105ed8186610572565b90506105fc604083018561050c565b61060960608301846105b7565b95945050505050565b600080fd5b600080fd5b7f4e487b7100000000000000000000000000000000000000000000000000000000600052604160045260246000fd5b61065482610561565b810181811067ffffffffffffffff821117156106735761067261061c565b5b80604052505050565b6000610686610495565b9050610692828261064b565b919050565b600067ffffffffffffffff8211156106b2576106b161061c565b5b6106bb82610561565b9050602081019050919050565b82818337600083830152505050565b60006106ea6106e584610697565b61067c565b90508281526020810184848401111561070657610705610617565b5b6107118482856106c8565b509392505050565b600082601f83011261072e5761072d610612565b5b813561073e8482602086016106d7565b91505092915050565b60006020828403121561075d5761075c61049f565b5b600082013567ffffffffffffffff81111561077b5761077a6104a4565b5b61078784828501610719565b91505092915050565b60006020820190506107a5600083018461050c565b92915050565b7f4e487b7100000000000000000000000000000000000000000000000000000000600052602260045260246000fd5b600060028204905060018216806107f257607f821691505b602082108103610805576108046107ab565b5b50919050565b7f50726f707565737461207961206573746120656a656375746164610000000000600082015250565b6000610841601b83610526565b915061084c8261080b565b602082019050919050565b6000602082019050818103600083015261087081610834565b9050919050565b7f4e487b7100000000000000000000000000000000000000000000000000000000600052601160045260246000fd5b60006108b1826104a9565b91507fffffffffffffffffffffffffffffffffffffffffffffffffffffffffffffffff82036108e3576108e2610877565b5b600182019050919050565b60008190508160005260206000209050919050565b60006020601f8301049050919050565b600082821b905092915050565b6000600883026109507fffffffffffffffffffffffffffffffffffffffffffffffffffffffffffffffff82610913565b61095a8683610913565b95508019841693508086168417925050509392505050565b6000819050919050565b600061099761099261098d846104a9565b610972565b6104a9565b9050919050565b6000819050919050565b6109b18361097c565b6109c56109bd8261099e565b848454610920565b825550505050565b600090565b6109da6109cd565b6109e58184846109a8565b505050565b5b81811015610a09576109fe6000826109d2565b6001810190506109eb565b5050565b601f821115610a4e57610a1f816108ee565b610a2884610903565b81016020851015610a37578190505b610a4b610a4385610903565b8301826109ea565b50505b505050565b600082821c905092915050565b6000610a7160001984600802610a53565b1980831691505092915050565b6000610a8a8383610a60565b9150826002028217905092915050565b610aa38261051b565b67ffffffffffffffff811115610abc57610abb61061c565b5b610ac682546107da565b610ad1828285610a0d565b600060209050601f831160018114610b045760008415610af2578287015190505b610afc8582610a7e565b865550610b64565b601f198416610b12866108ee565b60005b82811015610b3a57848901518255600182019150602085019450602081019050610b15565b86831015610b575784890151610b53601f891682610a60565b8355505b6001600288020188555050505b50505050505056fea2646970667358221220ef3e1a27d2d6a2cb1ba2373de91c5ff59ada7b79a33cb4ae736d04bcd9eb0ddb64736f6c63430008180033",
    "linkReferences": {},
    "deployedLinkReferences": {}
}